{"abi":[{"type":"function","name":"setValue","inputs":[{"name":"_value","type":"uint256","internalType":"uint256"}],"outputs":[],"stateMutability":"nonpayable"},{"type":"function","name":"value","inputs":[],"outputs":[{"name":"","type":"uint256","internalType":"uint256"}],"stateMutability":"view"},{"type":"event","name":"ValueSet","inputs":[{"name":"newValue","type":"uint256","indexed":false,"internalType":"uint256"},{"name":"setter","type":"address","indexed":false,"internalType":"address"}],"anonymous":false}],"bytecode":{"object":"0x6080604052348015600e575f5ffd5b506101df8061001c5f395ff3fe608060405234801561000f575f5ffd5b5060043610610034575f3560e01c80633fa4f245146100385780635524107714610056575b5f5ffd5b610040610072565b60405161004d91906100d1565b60405180910390f35b610070600480360381019061006b9190610118565b610077565b005b5f5481565b805f819055507ff421846e535e82c1fbd6ac49ea86e258f1940223db04456b26480f6f2db9f6a781336040516100ae929190610182565b60405180910390a150565b5f819050919050565b6100cb816100b9565b82525050565b5f6020820190506100e45f8301846100c2565b92915050565b5f5ffd5b6100f7816100b9565b8114610101575f5ffd5b50565b5f81359050610112816100ee565b92915050565b5f6020828403121561012d5761012c6100ea565b5b5f61013a84828501610104565b91505092915050565b5f73ffffffffffffffffffffffffffffffffffffffff82169050919050565b5f61016c82610143565b9050919050565b61017c81610162565b82525050565b5f6040820190506101955f8301856100c2565b6101a26020830184610173565b939250505056fea2646970667358221220871d6e4f49bd307449634b15c54de1b039aa7dcf650e67160049b68597af219064736f6c63430008220033","linkReferences":{}},"methodIdentifiers":{"setValue(uint256)":"55241077","value()":"3fa4f245"},"id":22}